:020000040800F2
:100000003011002425040008FB720008C3680008B2
:10001000F1710008931F0008558C000800000000D3
:10002000000000000000000000000000E17800086F
:10003000492400080000000003740008217A000829
:100040004304000843040008430400084304000874
:100050004304000843040008430400084304000864
:10006000430400084304000843040008F91F000883
:100070000520000843040008430400084304000866
:100080004304000843040008430400084304000834
:100090004304000843040008430400084304000824
:1000A0004304000843040008430400084304000814
:1000B0004304000843040008430400084304000804
:1000C00043040008430400084304000843040008F4
:1000D00043040008718B000843040008430400082F
:1000E0004304000843040008000000004304000823
:1000F00043040008430400084304000843040008C4
:1001000043040008430400084304000843040008B3
:100110004304000843040008C57B0008D17B0008A5
:100120004304000843040008430400084304000893
:100130004304000843040008430400084304000883
:1001400000000000000000000000000000000000AF
:100150004304000843040008430400084304000863
:100160004304000843040008430400084304000853
:100170004304000843040008430400080000000092
:100180004304000843040008430400084304000833
:100190004304000843040008430400084304000823
:1001A0004304000843040008430400084304000813
:1001B0004304000843040008430400084304000803
:1001C00043040008430400084304000843040008F3
:1001D00043040008430400084304000843040008E3
:1001E00043040008430400084304000843040008D3
:1001F00043040008430400084304000843040008C3
:1002000043040008430400084304000843040008B2
:1002100043040008430400084304000843040008A2
:1002200043040008430400084304000800000000E1
:1002300043040008430400080000000043040008D1
:100240004304000843040008430400084304000872
:100250004304000843040008430400084304000862
:100260004304000843040008430400084304000852
:100270004304000843040008430400080000000091
:100280004304000843040008430400080000000081
:10029000000000004304000800F002F800F0B2F88B
:1002A0000AA090E8000C82448344AAF10107DA45D1
:1002B00001D100F0A7F8AFF2090EBAE80F0013F071
:1002C000010F18BFFB1A43F00103184758960000AE
:1002D000789600000A444FF0000C10F8013B13F030
:1002E000070408BF10F8014B1D1108BF10F8015B8F
:1002F000641E05D010F8016B641E01F8016BF9D182
:1003000013F0080F1EBF10F8014BAD1C0C1B09D1D8
:100310006D1E58BF01F801CBFAD505E014F8016B4A
:1003200001F8016B6D1EF9D59142D6D370470000DC
:100330000023002400250026103A28BF78C1FBD8EE
:10034000520728BF30C148BF0B6070476E2900F0CC
:100350008283702900F0CD84662908F048866529DB
:1003600008F04586672908F04286612908F0418631
:1003700003681B0A28BF41F08001692900F046810B
:10038000642900F04381752900F040816F2900F055
:100390005A84782900F09984E92900F0F583E4294A
:1003A00000F0F283F52900F0EF83EF2900F0578485
:1003B000F82900F098840368DB0928BF41F0800128
:1003C000632901F0AF80732901F0B480E32901F0C3
:1003D000BF80F32901F0C480002070471FB508F0EA
:1003E00001FE01F00FF904000020002108F0E4FDF7
:1003F000401C60600020002108F0C8FDE0601FBDC7
:1004000010B510BD01F0D0F81146FFF7E7FF08F076
:100410005FFD01F0ADF903B4FFF7F2FF03BC01F09B
:10042000E9F900000A4880470A4880470A4800471F
:10043000FEE7FEE7FEE7FEE7FEE7FEE7FEE7FEE794
:10044000FEE7FEE705480649064A074B70470000ED
:10045000AD240008CD7A000899020008300B002472
:1004600030110024300D0024300D002453EA020C1A
:1004700000F069802DE9F04B4FF00006002B1FBF04
:10048000B3FA83F503FA05F424FA05F65E4012BFC9
:100490001643B2FA82F502FA05F4C5F120051EBF33
:1004A00022FA05FC44EA0C04203556EA044C4FEAD3
:1004B000144418BF641C4FF000084FF0000990422C
:1004C00071EB030C39D3002919BFB1FA81F701FA96
:1004D00007F6B0FA80F700FA07F6C7F120071EBF4B
:1004E00020FA07FC46EA0C062037B6FBF4FCA7EB23
:1004F0000507103F07F01F0BCBF120060CFA0BFB92
:100500002CFA06F644BFB3460026202FA4BF5E4651
:100510004FF0000B5BEA060C08BF4FF0010B19EB24
:100520000B09ABFB027C48EB0608C01B06FB02CCA8
:100530000BFB03CC71EB0C01C1E70B4602464146B5
:100540004846BDE8F08B13B54FF000004FF00001B6
:10055000AFF30080BDE81C40704700007CB51D462D
:1005600016460C00009001D02044401E074B7B44EF
:100570002A4669460190304600F087FA05461CB1CC
:100580000020694600F094FA28467CBD4905000029
:100590000FB41CB5084B06AA7B4469460090059829
:1005A00000F073FA04460020694600F081FA204604
:1005B0001CBC5DF814FB00001505000070B5044676
:1005C00085690068C10601D5302600E02026C007F5
:1005D00007D070BDD4E9012130469047206A401C05
:1005E00020626D1EF6D570BD70B504468569007831
:1005F000C00707D170BDD4E9012120209047206AAF
:10060000401C20626D1EF6D570BD00002DE9F04142
:100610000646002410687529314616A510D000F052
:1006200086F9002802DA404213A507E031688A07FC
:1006300001D512A502E0490704D511A5012401E066
:1006400000F07EF900210A2206F1240709E0B0FB40
:10065000F2FCB0FBF2F302FB1C0030307854184679
:10066000491C0028F3D123462A463046BDE8F04114
:1006700000F098B9000000002D0000002B000000E1
:10068000200000002DE9F05F894604464FF0000A83
:10069000DFF874B1FB44C0F820A02046E168884729
:1006A000002874D0252806D0D4E901219047206A7B
:1006B000401C2062F1E700265F462046E16888473B
:1006C0002028054607DB312D05D2781910F8200CBB
:1006D00008B10643F1E7B00701D526F00406C4F8D7
:1006E0001CA00027C4F818A02A2D09D0284608F01D
:1006F00004FB38B304EB8708303DC8F8185019E004
:1007000059F8041B204604EB87029161E168884791
:10071000012F054618D1E069002820DA26F02006CE
:100720001DE0D8F8180000EB800005EB40003038E1
:10073000C8F818002046E1688847054608F0DDFA49
:100740000028EED1012F0AD02E2D08D12046E168D5
:1007500088477F1C0546022F46F02006C4DBA069AF
:10076000002803DA404246F00106A061F00701D0FC
:1007700026F010066C2D0BD0682D09D04C2D39D0E9
:100780006A2D35D0742D35D07A2D33D016E038E06F
:10079000E1682F4620468847B842054609D16C2FAC
:1007A00026D04FF48060E16806432046884705461E
:1007B00004E06C2F1AD04FF4807006430DB3A5F1FE
:1007C0004100192802D8203546F400664A462946D9
:1007D000204626604E46FFF7B9FD80B101280BD0B8
:1007E000F61D26F0070000F1080956E74020E4E76F
:1007F0008020D8E70020D6E706F104094DE7284617
:1008000052E7206ABDE8F09F8E910000032A40F273
:10081000308010F0030C00F0158011F8013BBCF1A2
:10082000020F624498BF11F801CB00F8013B38BFBA
:1008300011F8013BA2F1040298BF00F801CB38BFC8
:1008400000F8013B11F0030300F05E82083AC0F0AB
:10085000088051F8043B083A51F804CBA0E808108E
:10086000F5E7121D5CBF51F8043B40F8043BAFF3C1
:100870000080D20724BF11F8013B11F801CB48BF1B
:1008800011F8012B24BF00F8013B00F801CB48BF51
:1008900000F8012B70474FF000020429C0F01280CD
:1008A00010F0030C00F01B80CCF1040CBCF1020F23
:1008B00018BF00F8012BA8BF20F8022BA1EB0C01F8
:1008C00000F00DB85FEAC17C24BF00F8012B00F8EE
:1008D000012B48BF00F8012B70474FF0000200B514
:1008E000134694469646203922BFA0E80C50A0E853
:1008F0000C50B1F12001BFF4F7AF090728BFA0E801
:100900000C5048BF0CC05DF804EB890028BF40F8CC
:10091000042B08BF704748BF20F8022B11F0804F0E
:1009200018BF00F8012B704770477047704709687F
:100930004A0501D540B27047C905FCD500B27047E1
:1009400009684A0501D5C0B27047C905FCD580B217
:10095000704770B50C460546012A05D028788006F8
:1009600000D5EA69002302E0012305E05B1C934205
:1009700002D2E05C0028F9D1A869E618C01AA86183
:10098000286A184428622846FFF718FE04E0D5E9D3
:10099000012114F8010B9047B442F8D32846FFF721
:1009A00023FE70BD2DE9F0470D4699469246044658
:1009B00000F124080168880604D5E06921F01001DF
:1009C000216000E00120A84201DD471B00E0002774
:1009D000A1697A1902EB0900081AA0612078C00603
:1009E00002D42046FFF7EAFD002608E0D4E9012101
:1009F0001AF806009047206A401C761C20624E457B
:100A0000F4DB2078C0060AD52046FFF7D7FD06E0C4
:100A1000D4E9012130209047206A401C2062381E12
:100A2000A7F10107F4DC07E0D4E9012118F805007B
:100A30009047206A401C2062281EA5F10105F3DCC6
:100A40002046FFF7D1FD2078000602D50220BDE840
:100A5000F0870120FBE711680268006A530501D5A1
:100A600008700AE0D30501D5088006E0130603D517
:100A7000C217C1E9000200E00860012070470000D1
:100A800001694A1C02610878704700B58FB0CDE952
:100A900001310021059105497944CDE90310114642
:100AA0006846FFF7EFFD0FB000BD0000E5FFFFFF58
:100AB0000A6802F8010B0A607047D1E900239A42E4
:100AC00002D2531C0B601070704700002DE9FF5FCD
:100AD00015468A460446DFF8AC80F8440027D8E97A
:100AE00000103E46CDE9001010E03AF816106A46B4
:100AF00002A800F039FD411C07D02178890603D5F2
:100B0000E269391891420DD80744761C2078800696
:100B100002D5E069B84205DDAE42E6DB3AF81600E0
:100B20000028E2D1A069C01BA0612046FFF746FD66
:100B3000D8E90010CDE90010002017E03AF81810AD
:100B40006A4602A800F010FDB0F1FF3F81460BD0CD
:100B500000250DF1080B05E0D4E901211BF8050083
:100B600090476D1C4D45F7D308F10100B042804617
:100B7000E4DB206A384420622046FFF735FDBDE8FB
:100B8000FF9F00005A8D00002DE9F0418046D21DE4
:100B900022F007020025D2E90002F52915A614D09B
:100BA000011E72F1000106DA0023D0EB030063EBB3
:100BB000020211A608E0D8F800108B0701D50FA695
:100BC00002E0490701D50EA601251146002408F1CF
:100BD000240704E000F0CAF830323A55641C50EAA9
:100BE0000102F7D12B46324621464046BDE8F0418E
:100BF000FFF7D8BE000000002D0000002B00000011
:100C00002000000030B4002100F1240408E002F0CC
:100C10000705D208303542EA4372DB086554491CA7
:100C200052EA0305F3D10468002310A2250707D573
:100C3000A40600D421B1C46901230DA2641EC461BD
:100C400030BCFFF7AFBE10B5044621461068FFF771
:100C500077FE02462046BDE810400023D2E7D21DB1
:100C600022F00701D1E90023CCE7000000000000DA
:100C700030000000F0B40D460188090502D5214C72
:100C80007C4402E01F4C7C440E34002100F1240619
:100C900008E002F00F071209E75D42EA03721B0940
:100CA0007754491C52EA0307F3D102780023120754
:100CB00004D5702D06D009B1022311342246F0BCB0
:100CC000FFF770BE01231034F8E770B504460D46F7
:100CD00021461068FFF734FE024629462046BDE84B
:100CE00070400023C6E7D21D22F00703D3E900239A
:100CF000C0E70368126843F0200303600823C36160
:100D00000023B7E7BC8B000010B5203AC0F00B8081
:100D1000B1E81850203AA0E81850B1E81850A0E8FF
:100D20001850BFF4F5AF5FEA027C24BFB1E8185059
:100D3000A0E8185044BF18C918C0BDE810405FEAC9
:100D4000827C24BF51F8043B40F8043B08BF704745
:100D5000D20728BF31F8023B48BF11F8012B28BF4A
:100D600020F8023B48BF00F8012B704730B5B0F1C6
:100D70000A024FEA900E71F100034EEA817EB0EB59
:100D80000E0061EB91014FEA101E4EEA017E10EB5E
:100D90000E0041EB11114FEA102E4EEA016E10EBDE
:100DA0000E0041EB11214FEA104E4EEA014E10EBBE
:100DB0000E0041EB1141401841F100014FEAD00013
:100DC00040EA41704FEAD10110EB80054FEA8104FF
:100DD00044EA907444EB01046D1944EB0404521B83
:100DE000A3414FF0000348BF0A3200D530BD401C7C
:100DF00041F1000130BD70472DE9FF4F0C461E4602
:100E00004FF0FF378BB0D2E90001DDF860800A9027
:100E10008A46C1F30A5505B93D46002108464FF000
:100E20000000BAF1000F00F4400005DA00EB80008A
:100E30004FF4400101EA50004FEA9059B9F1010F17
:100E400000DDB9460A9850EA4A000ED044F6105028
:100E5000A5F2FF3545432F14B8F1000F1ED075429F
:100E6000291E1EDDC9F100021CE0B8F1010F4FF090
:100E7000000001D0302103E0F24305E02154401C82
:100E8000B042FBDB30460022002121540B99C1F80F
:100E90000880C1E900200FB0BDE8F08FBD1B6D1CBC
:100EA000DEE74A4600DA694206A800F0EFFB06AB2F
:100EB00093E8070003AB83E8070050460A9900F067
:100EC000A0FC8DE80700A0F500501F3800900398A3
:100ED000002D0ADD42F21F014A460844002303A9FF
:100EE0000390684600F009FF09E0A0F500504A466B
:100EF0001F38002303A90390684600F013FF8DE814
:100F000007000004000C03D04FF0FF30410800E060
:100F10001046B8F1000F03D00022009215461EE0E3
:100F2000751E05D4FFF722FF303262556D1EF9D5CC
:100F3000B3460122084302D000227F1C04E020783F
:100F4000302801D100227F1E002A099784D01DE09D
:100F5000112D07DAFFF70AFF303262556D1C50EA97
:100F60000102F5D1084302D00098C8B10EE000217B
:100F7000681E05E0235C625C63542254401E491CD9
:100F80008142F7DBAB46A81B401E0990002004F805
:100F90000B000B98099AC0F80880C0E9002B7AE78B
:100FA00011264FF0000857E72DE9F04F8846044618
:100FB000D21D22F0070191B0D1E90001CDE90A016B
:100FC00007F072FE02460B98C00F01D02D2007E0FB
:100FD0002068810701D52B2002E0202101EAC00012
:100FE000032A099001D0072A05DB03464146204623
:100FF00000F00CFB0BE12078800601D5E06900E0F1
:101000000620B8F1650F814606D0B8F1660F18D0FA
:10101000B8F1670F70D131E00020B9F1110F0090E5
:1010200001DB112301E009F101030AAA01A90CA8BF
:10103000FFF7E2FEDDE90C70002609F101058346A9
:1010400047E001204B4600904FF000470AAA01A953
:101050000CA8FFF7D1FEDDE90DB00C995D46002626
:1010600010B909F101000D18B9EB050003D4C0F166
:10107000FF3609F10105A5EB09002BE0B9F1010FDD
:1010800001DA4FF001090020B9F1110F0090484634
:1010900001DD112300E003460AAA01A90CA8FFF70D
:1010A000ABFEDDE90C704D46002683462078000734
:1010B0000AD4AB4500DA5D4601A8012D04DD4119D3
:1010C00011F8011C302907D04F4502DA17F1040F3F
:1010D00004DA012082460FE06D1EEEE7002F02DCED
:1010E000ED1B3E4403E0781CA84200DD7D1CB81BCC
:1010F00000F1010A4FF000472078000703D4AA4509
:1011000001DB4FF0FF3A0021B7F1004F0DF143082A
:101110008DF8431024D002202B23002F01DA7F42C8
:101120002D230A21021EA0F1010000DC5FB197FB14
:10113000F1FC97FBF1F201FB1C7C17460CF1300C23
:1011400008F801CDEEE7A8F1010003702188090538
:1011500001D5452100E06521A0F1010800F8011C3E
:1011600009980FA9A1EB0807FF1D00B10120411943
:1011700001EBEA70A1693844081A401EA06120788A
:10118000C00602D42046FFF719FA099828B1D4E91D
:1011900001219047206A401C20622078C00622D599
:1011A0002046FFF70BFA1EE0002E04DBB34502DDFC
:1011B00001A8805D00E03020D4E901219047206A39
:1011C000401C2062761CAAF101005FEA000A0AD1E5
:1011D00000F018FAC0680168405CD4E9012190472A
:1011E000206A401C2062281EA5F10105DCDC07E016
:1011F000D4E9012118F8010B9047206A401C2062B5
:10120000381EA7F10107F3DC2046FFF7EDF90320B4
:1012100011B041E62DE9F04F04460D46D21D22F0F3
:10122000070089B0D0E900974846394607F03CFDF1
:101230000246F80F01D02D2307E02068810701D571
:101240002B2302E0202101EAC0038DF820300BB1EE
:10125000012000E00020032A824601D0072A04DB97
:101260002946204600F0D2F93FE12078800601D4DB
:101270000D2500E0E569C7F30A560D2D49DA002176
:101280004FEA175B08464FF00000002F00F44000C3
:1012900007DA00EB80004FF4400100EBD07001EA68
:1012A00060008115012901DD4FF0FF3100224FEA76
:1012B000850CBCF1180F06D31346ACF118004FF0A3
:1012C0008052C24003E04FF4801323FA0CF30CF178
:1012D0000C0CBCF1200F04D3ACF1200C09FA0CF07B
:1012E00001E007FA0CF000294FF0004801DD18B9C1
:1012F0000FE00ED140450CD319EB02095F4121B933
:10130000404502D19F4329EA0209BBEB175F00D099
:10131000761C2088000502D57B48784402E07A4894
:101320007844193808AA302302F80A30037C0AF1FD
:101330000101002E0AF1020A53546A4602DC4FF002
:10134000300101E04FF031014FF001088DF800103D
:1013500002D0A6F2FF3603E059EA470100D06B4EF7
:10136000002D02DC2178090704D54FF002082E2158
:101370008DF80110C44600210BE0C7F303433F0181
:10138000C35C491C6D1E02F80830052908F10108EC
:1013900001DA002DF1DC00210CE000EB1973491C8F
:1013A0001B786D1E082902F808304FEA091908F168
:1013B000010801DA002DF0DC21688B0602D516E069
:1013C000A8F10108E04505DD02EB080313F8013C34
:1013D000302BF5D0B8F1000F09DD02EB080313F84C
:1013E000013C2E2B03D1090701D4A8F10108002DDF
:1013F00005DD3E2102F808106D1E08F10108407C51
:10140000002E02F8080008F1010804DA2D207642C7
:1014100002F8080002E02B2002F808000A214FF42D
:101420007A70864208F101080BDB96FBF0F330334B
:1014300002F8083096FBF0F308F1010800FB136690
:1014400001E0642E0CDB642096FBF0F3303302F8ED
:10145000083096FBF0F308F1010800FB136601E089
:101460000A2E06DB96FBF1F0303002F8080008F196
:10147000010896FBF1F001FB1060303002F8080023
:10148000A16908F1010808EB050202EB0A00081A3D
:10149000A0612078C00602D42046FFF78FF8216AA9
:1014A00008AE01EB0A00206204E0D4E9012116F83D
:1014B000010B9047BAF1010AF7D22078C00602D595
:1014C0002046FFF77BF86E4609E016F8010B3E2830
:1014D0000FD0D4E901219047206A401C2062B8F166
:1014E0000108F2D22046FFF77FF809B00320BDE8DB
:1014F000F08F206A2844206203E0D4E901213020E3
:1015000090476D1EEBD3F8E75D85000002FCFFFFFE
:1015100010B5436913B1AFF3008001E0FFF719FA8A
:10152000012010BD127800F124010A7000224A70D7
:101530000122EDE711684FF0FF32E9E710B543698A
:1015400013B1AFF3008001E0FFF7C0FA012010BD36
:10155000128800F1240182840022C2840122EDE776
:1015600011684FF0FF32E9E770B516460C460546A4
:1015700000F040F8036893F80101012806D0FF2C21
:101580000FD8185D68B101202C7070BDD3F8070129
:101590003246214603F2071303442846BDE8704053
:1015A00018474FF0FF3070BD754600F0EBF8AE46BF
:1015B00005006946534620F00700854618B020B55F
:1015C000FEF740FFBDE820404FF000064FF0000757
:1015D0004FF000084FF0000B21F00701AC46ACE8DB
:1015E000C009ACE8C009ACE8C009ACE8C0098D4648
:1015F0007047000010B500F005F8001D10BD00BFD9
:10160000B979000000487047EC0A00242DE9F04148
:101610001F46044603260168072A01F4006004DB24
:1016200008B116A505E016A503E008B115A500E070
:1016300015A521F010002060A069C01EA0610FB1A7
:10164000401EA0612046FEF7B9FF4FB1D4E9012149
:1016500038469047206A401C2062C01C206206E089
:10166000206AFAE7D4E9012115F8010B9047761EAC
:10167000F8D22046FEF7B8FFBDE8F0814E414E009B
:101680006E616E00494E4600696E66002DE9F047B6
:10169000814616468AB0354878440DC88DE80D005D
:1016A00032487844801C03AC0DC884E80D0041F634
:1016B0009B300844372190FBF1F290FBF1F5A5F146
:1016C000800501FB12041B3C02D56442012000E0AE
:1016D0000020DFF898A080460027FA44AAF1BE0A4D
:1016E0000EE0E0070AD03246684607EB47010123C7
:1016F0000AEB810100F016FB8DE8070064107F1CE7
:10170000002CEED1194F7F44AE3F19E0E80715D009
:1017100007EB04100DF1180A90E80E008AE80E009D
:10172000C068F04201D1981908903246012306A9F9
:1017300003A800F0F7FA03AB83E807006D10641C00
:10174000002DE3D14FF0010332466946B8F1000F96
:1017500003A802D000F0D1FA01E000F0E3FAC9E9F1
:101760000001C9F808200AB0BDE8F08770820000C7
:1017700010B50446AFF300802046BDE81040FEF7E8
:101780004ABE000000487047CC0A00244FF0013CDC
:1017900050F8042B51F8043B9A4215D1A2EB0C03EC
:1017A000934313EACC130BD150F8042B51F8043BAC
:1017B0009A4209D1A2EB0C03934313EACC13E7D06E
:1017C0004FF00000704700BFD01A01BAB1FA81F1A2
:1017D00001F0180122FA01F0CB40C1F12001DBB287
:1017E000C0B2C01A2CFA01F3D11A914311EAC31105
:1017F000E6D1704701491820ABBEFEE72600020083
:1018000070475FEA400C08BF91F0000F4FEA8C234D
:101810004FEAC12243EA51514FEA1C5018BF00F56C
:10182000F0404FEA300018BF41F000415FEA6C5CC5
:1018300000F02980BCF1FF3F08BF40F080407047B6
:10184000130C06BF12044FF0100C4FF0000C130ED7
:1018500004BF12020CF1080C130F04BF12010CF1AB
:10186000040C930F04BF92000CF1020CD30F04BFC1
:1018700052000CF1010C11464FF00002A0F11F00C4
:10188000A0EB0C00704711F0004F08BF704731F01B
:1018900000413FF4D5AF0B0C06BF09044FF0100C0C
:1018A0004FF0000C0B0E04BF09020CF1080C0B0FDB
:1018B00004BF09010CF1040C8B0F04BF89000CF16B
:1018C000020CCB0F04BF49000CF1010CCCF120033A
:1018D000A0EB0C0022FA03F302FA0CF241EA030136
:1018E00000F10100704720F07F4C80EA030023F0F4
:1018F0007F47ACEB070303F57C5300F0004003F196
:10190000FF032DE980494FEA154B09B44FEA144310
:1019100025EA0B4E24EA03480FF2042606EB1327B0
:1019200049083E785FEA320203FB0667C7F5000705
:1019300007FB06F64FEA54374FEAD64606F1020691
:1019400007FB066CCCF1005C4FEA1C472CEA074C05
:1019500007FB06F40CFB06F504EB15464FEA96165A
:1019600034BF00204FF000404FEAD13706FB07FCA0
:101970004FEA1C4C0CFB0BF7D21B03FB0CF761EB83
:1019800007010CFB0EF7B0EB074072EB17420CFBA4
:1019900008F734BFA2EB0742B2EB074261EB1741F5
:1019A0004FEA0C444FEA910706FB07FC4FEA1C4C38
:1019B0000CFB0BF7B0EBC74072EB573203FB0CF795
:1019C00034BFA2EBC742B2EBC74261EB57310CFB0D
:1019D0000EF7B0EBC70072EB57720CFB08F734BF81
:1019E000A2EBC702B2EBC70261EB5771039F4FEA4C
:1019F000816141EA921104EBCC044FEAD1374FEAFE
:101A0000826206FB07FC42EA90124FEA80604FEACE
:101A10001C4C0CFB0BF7D21B03FB0CF761EB070113
:101A20000CFB0EF7B0EB074072EB17420CFB08F70C
:101A300034BFA2EB0742B2EB074261EB17414FEA1A
:101A40008C554FEA910704EB9C2406FB07FC4FEAF8
:101A50001C4C0CFB0BF7B0EBC74072EB573203FB8F
:101A60000CF734BFA2EBC742B2EBC74261EB573170
:101A70000CFB0EF7B0EBC70072EB57720CFB08F7CC
:101A800034BFA2EBC702B2EBC70261EB577115EB93
:101A90004C254FEA816141EA92114FEA82624FEA96
:101AA000D13742EA901206FB07FC44F100044FEAEA
:101AB00080604FEA1C4C0CFB0BF7D21B03FB0CF7AE
:101AC00061EB07010CFB0EF7B0EB074072EB17421E
:101AD0000CFB08F734BFA2EB0742B2EB074261EB05
:101AE000174115EB1C154FEA813141EA92414FEA4B
:101AF000823242EA90424FEA80304FEA0C7644F15B
:101B0000000448EA03434EEA0B484FF0000EB2EBE4
:101B1000080C71EB030724BF624639464EEB0E0EEC
:101B20004FF0000B0018524149414BEB0B0BB2EB4D
:101B3000080C71EB03077BF1000B24BF62463946AA
:101B40004EEB0E0E4FF0000B0018524149414BEB8B
:101B50000B0BB2EB080C71EB03077BF1000B24BFFE
:101B6000624639464EEB0E0E51EA020718BF46F0A8
:101B7000010616EB0E7655F1000254F1000103D573
:101B8000BDE88901BDE80088BDE88901BDE80048DD
:101B9000B619524141EB0101A3F101037047808066
:101BA0007F7E7D7C7B7A79787776767574737271B7
:101BB00071706F6E6E6D6C6C6B6A6A69686867666F
:101BC00066656464636362616160605F5F5E5E5D01
:101BD0005D5C5C5B5B5A5A59595858575756565575
:101BE00055555454535352525251515050504F4FD7
:101BF0004F4E4E4D4D4D4C4C4C4B4B4B4A4A4A4927
:101C00004949484848474747474646464545454469
:101C10004444444343434342424242414141002BF6
:101C20009C4630D477002BD01CB54FEA370703B45D
:101C30004FF010004FF01001BAF1000F06D0BCF1C8
:101C4000000FDCBF40F0080040F008014FF000003A
:101C50000FBCBDE810400BF1010BBBF1010F08BF39
:101C60005FEA170722BF12F1010211F101014FF0E3
:101C7000004143F1000300F0004043EA00007047D8
:101C8000F9D35708D0E746EA064613F1400F4FEA6A
:101C900016461FDD13F1200FDFBF16430A46002151
:101CA00020335B42BED0C3F1200746EA064602FA63
:101CB00007F74FEA164646EA0706C3F1200722FA5D
:101CC00003F201FA07F721FA03F14FF0000342EAA9
:101CD0000702A7E746EA020646EA06464FEA164624
:101CE00046EA0106BCBF46EA0646360C4FF0000342
:101CF0004FF000024FF0000194E72DE9804C9A4626
:101D0000934670B491E8380007C831EA400C48BFE8
:101D100034EA430C03D5FFF7E6FDFFF780FFF0BC84
:101D2000BDE8008C2DE9804C9A46934670B491E84A
:101D3000380007C810F0804F08BF13F0804F03D160
:101D400000F005F8FFF76BFFF0BCBDE8008C20F059
:101D50007F4780EA030023F07F4C07EB0C03A3F5D9
:101D60007C5300F00040A3F1FE0392F0000F00F05E
:101D7000B38095F0000F00F077802DE901494FEA1C
:101D800011404FEA144621EA004800FB06FC24EA11
:101D9000064708FB06F607FB08F800FB07F718EBF9
:101DA00006484CEB164C4FEA124B18EB07484FEA2B
:101DB00015464CEB174022EA0B4E0BFB06FC25EABE
:101DC00006470EFB06F607FB0EFE0BFB07F71EEBA6
:101DD000064E4CEB164C4FF000061EEB074E4CEB3C
:101DE000174B18EB0B0840F1000018EB0E0B58EBEB
:101DF000000840F100008F1A4FF000013CBFC943BA
:101E0000661B14BFB5EB040C00213CBFC943F61B95
:101E10004FEA17444EEA8E0E27EA04454FEA1C4764
:101E200004FB07622CEA074C05FB07F70CFB05F6E1
:101E300004FB0CFC16EB074642EB174216EB0C4674
:101E400042EB1C421BEB060658EB0202414146EAFC
:101E50009E0601D5BDE80189B619524141EB010149
:101E6000A3F10103BDE801894FEA14454FEA114788
:101E700024EA054621EA074C05FB07F406FB07F7B1
:101E80000CFB06F105FB0CFC11EB074144EB17447E
:101E90004FEA124711EB0C4144EB1C4422EA074C79
:101EA00005FB07F206FB07F70CFB06F605FB0CFC2F
:101EB00016EB074642EB174216EB0C4642EB1C456D
:101EC0006A1854F1000148BF7047B619524141EBFE
:101ED0000101A3F10103704795F0000F37D04FEADD
:101EE00011424FEA144721EA024624EA074C02FB5A
:101EF00007F106FB07F70CFB06F402FB0CFC14EBE6
:101F0000074441EB17414FEA154714EB0C4441EBF2
:101F10001C4125EA074C02FB07F506FB07F70CFB03
:101F200006F602FB0CFC16EB074645EB174516EBD5
:101F30000C4645EB1C42121951F1000148BF704795
:101F4000B619524141EB0101A3F1010370474FEA79
:101F500014454FEA114724EA054621EA074C05FBE0
:101F600007F106FB07F70CFB06F24FF0000605FB36
:101F70000CFC12EB074241EB174112EB0C4251EB08
:101F80001C4148BF7047921841EB0101A3F10103C6
:101F90007047FEE70649002010B50870054805F0B7
:101FA00021FA0022BDE810401146104605F021B983
:101FB0005C040024980A0024074810B505F012FAC2
:101FC000074800219FED050A012280ED0A0A816180
:101FD000C1614170027010BD980A00240000000029
:101FE0005C040024024880ED040A024805F006BAA9
:101FF0005C040024980A0024014800F067BD00003A
:1020000050080024014800F061BD0000C808002409
:10201000294A016891423AD0274A1832914236D073
:10202000254A3032914232D0234A483291422ED052
:10203000214A603291422AD01F4A7832914226D0FA
:102040001D4A9032914222D01B4AA83291421ED0A2
:102050001A4A91421BD0194A1832914217D0174A96
:102060003032914213D0154A483291420FD0134A70
:10207000603291420BD0114A7832914207D00F4A18
:102080009032914203D00D4AA832914211D1CAB286
:102090001823103AB2FBF3F26FF30901032A02F09E
:1020A0000703074AD25CC26500D9091D816508464D
:1020B000704721F0FF01F9E71000024010040240D0
:1020C000F68F000830B5224A012301689142CAB256
:1020D0001BD01F4C1434A14217D01D4C2834A142F0
:1020E00013D01B4C3C34A1420FD0194C5034A142A8
:1020F0000BD0174C6434A14207D0154C7834A14260
:1021000003D0134C8C34A1420CD11421114C083A49
:10211000B2FBF1F10F4A803201F01F0504EB81019F
:10212000AB4010E00C4D1824103A0D44B2FBF4F112
:10213000A82D00D80831094A01F01F0402EB8101E3
:10214000064AA3408032603080E80E0030BD0000B7
:102150000854025800580258F0FBFDBF0008024026
:1021600010B50279531E072B2DD8174C0168A142D8
:102170001BD0154C1434A14217D0134C2834A14263
:1021800013D0114C3C34A1420FD00F4C5034A1421B
:102190000BD00D4C6434A14207D00B4C7834A142D3
:1021A00003D0094C8C34A14203D10849074C443177
:1021B00002E00749064C443104EB8202C0E91B21CE
:1021C00001219940416710BD08540258FC5802583B
:1021D000FC08024010B583694FF0C074826A014662
:1021E000002053B1B3F5005F15D072B1012A0CD0B5
:1021F000022A0AD0032A09D104E01AB1012A06D022
:10220000022A03D1C96AC90100D5012010BDC96ADB
:10221000A142FAD010BD002AF7D0012AF2D0022A3A
:10222000F3D0032AF3D010BD2DE9F04F804E804F3C
:10223000DFF8FC911836DFF8F8A148370468856D9F
:102240000AF1300ADFF8ECB14C45DFF8ECC1DFF8F9
:10225000ECE16DD0B4426BD0544569D0BC4267D03C
:10226000DFF8D081A8F11808444561D05C455FD003
:1022700064455DD074455BD0DFF8C481444557D0D8
:10228000DFF8BC8108F11808444551D0DFF8B0816F
:1022900008F1300844454BD0DFF8A48108F1480824
:1022A000444545D0DFF8988108F1600844453FD0A7
:1022B000DFF88C8108F17808444539D0DFF8808157
:1022C00008F19008444533D0DFF8748108F1A8087C
:1022D00044452DD0DFF86C81444529D0DFF8648176
:1022E00008F11408444523D0DFF8588108F1280884
:1022F00044451DD0DFF84C8108F13C08444517D017
:10230000DFF8408108F15008444511D0DFF83481EE
:1023100008F1640844450BD0DFF8288108F17808FB
:10232000444505D0DFF81C8108F18C08444509D1EB
:10233000D0E91948C4F80480C46E1CB1D0E91C4827
:10234000C4F8048004684C452ED0B4422CD05445C7
:102350002AD0BC4228D0374E183EB44224D05C4527
:1023600022D0644520D074451ED0354EB4421BD0D7
:10237000334E1836B44217D0314E3036B44213D0F3
:102380002F4E4836B4420FD02D4E6036B4420BD09B
:102390002B4E7836B44207D0294E9036B44203D043
:1023A000274EA836B44215D190F85C603F2406F061
:1023B0001F06B440AC600468256825F480252560BC
:1023C0002EE09A600068C160BDE8F08F99600068F7
:1023D000C260F9E71B4EB4421BD01A4E1436B44209
:1023E00017D0184E2836B44213D0164E3C36B4429D
:1023F0000FD0144E5036B4420BD0124E6436B44255
:1024000007D0104E7836B44203D00E4E8C36B4420C
:10241000DAD190F85C60012406F01F06B4406C60CD
:10242000046863608368402B0368CFD1C9E700006C
:102430001000024088000240A0000240B8000240A4
:10244000100402400854025870470000034800215D
:10245000818081603C21006803F058BB1401002496
:10246000002810B511D10948036884881B685B6A8D
:102470008380A3EB040384681BB21C44846001B115
:102480000B80002A01D08068106010BD1401002468
:10249000002806D103480021026812685162818039
:1024A000816070471401002472B6FEE705480549B3
:1024B0000839026842F00202026008688004FCD514
:1024C000704700000C48025810B58028144608D206
:1024D000A02906D204F08DFB2046BDE8104004F090
:1024E00011BA10BD2DE9F84F044601F0CBFA009067
:1024F0003CB194F83500022806D0802161650020A7
:10250000E4E00120BDE8F88FC74DC74EC649183535
:1025100020683036DFF81483DFF814938842DFF840
:1025200014A3DFF814B32ED0A8422CD0B0422AD086
:10253000404528D0484526D0504524D0584522D083
:10254000BD4A183290421ED0BC4A90421BD0BB4AB2
:102550001832904217D0B94A3032904213D0B74A5D
:10256000483290420FD0B54A603290420BD0B34A05
:102570007832904207D0B14A9032904203D0AF4AAD
:10258000A832904209D1026822F01E02026020683F
:10259000426922F08002426103E0026822F00E02EA
:1025A000026027688F4238464DD0A8424BD0B042D7
:1025B00049D0404547D0484545D0504543D058457F
:1025C00041D09D4A183290423DD09C4A90423AD028
:1025D0009A4A1832904236D0984A3032904232D0DD
:1025E000964A483290422ED0944A603290422AD085
:1025F000924A7832904226D0904A9032904222D02D
:102600008E4AA83290421ED08D4A90421BD08C4AEE
:102610001432904217D08A4A2832904213D0884A06
:102620003C3290420FD0864A503290420BD0844ABE
:102630006432904207D0824A7832904203D0804A76
:102640008C32974204D1206E026822F480720260BC
:1026500075492068884228D0A84226D0B04224D0AC
:10266000404522D0484520D050451ED058451CD06A
:1026700071491831884218D07049884215D06F4985
:102680001831884211D06D49303188420DD06B49E4
:102690004831884209D069496031884205D067498C
:1026A0007831884201D065499031016821F00101FB
:1026B00001600EE001F0E6F90099401A052808D9FA
:1026C000202262650321002084F8351084F834004C
:1026D00017E73868C007EDD1534A012120689042BE
:1026E0002ED0A8422CD0B0422AD0404528D0484510
:1026F00026D0504524D0584522D04F4B183398420D
:102700001ED04E4B98421BD04C4B1833984217D0DA
:102710004A4B3033984213D0484B483398420FD03D
:10272000464B603398420BD0444B7833984207D0E5
:10273000424B9033984203D0404BA833984208D183
:1027400094F85C703F23A06D07F01F07BB408360C7
:1027500007E094F85C30A06D03F01F0301FA03F367
:102760004360206890424DD0A8424BD0B04249D03F
:10277000404547D0484545D0504543D0584541D0C5
:102780002D4A183290423DD02C4A90423AD02B4AE2
:102790001832904236D0294A3032904232D0274AFD
:1027A000483290422ED0254A603290422AD0234AA5
:1027B0007832904226D0214A9032904222D01F4A4D
:1027C000A83290421ED01E4A90421BD01C4A14329E
:1027D000904217D01A4A2832904213D0184A3C32FD
:1027E00090420FD0164A503290420BD0144A6432B5
:1027F000904207D0124A7832904203D0104A8C326D
:1028000090420BD1D4E919024260E06E30B1026807
:1028100022F480720260D4E91C024260002084F835
:10282000351084F834006DE6100002405800024074
:102830007000024088000240A000024010040240E4
:10284000085402582DE9F05F28B190F8351002299C
:1028500004D0802141650120BDE8F09F904C904B51
:102860000168183C18338E4ADFF83C92A1428D4C27
:10287000DFF838E28E4FDFF83CB2DFF83CA28F4D34
:102880008F4E31D091422FD099422DD0A1422BD0E2
:10289000494529D0714527D0B94225D0DFF810C26B
:1028A0000CF1180C61451FD0DFF808C2ACF1600CC8
:1028B000614519D0DFF8FCC1ACF1480C614513D07B
:1028C000DFF8F0C1ACF1300C61450DD0DFF8E4C1A8
:1028D000ACF1180C614507D0594505D0514503D0DE
:1028E000A94201D0B1422CD1DFF8B4C14FF00408A5
:1028F00080F83580ACF1180C61451DD091421BD099
:10290000994219D0A14217D0494515D0714513D02D
:10291000B94211D06648183081420DD06548603800
:10292000814209D063484838814205D06148303837
:10293000814201D05F481838086820F00100086023
:10294000ABE0D1F800C02CF00E08DFF854C1C1F89C
:102950000080ACF1180C0168614527D0914225D068
:10296000994223D0A14221D049451FD071451DD0A5
:10297000B9421BD0DFF838C10CF1180C614515D0F5
:10298000DFF830C1ACF1600C61450FD0DFF824C135
:10299000ACF1480C614509D0DFF818C1ACF1300C3E
:1029A000614503D0DFF80CC1ACF1180CD1F800C0C0
:1029B0002CF0010CC1F800C0DFF8E4804FF0010CEE
:1029C0000168A8F11808414546D0914244D0994287
:1029D00042D0A14240D049453ED071453CD0B94299
:1029E0003AD0334A1832914236D0324A603A914254
:1029F00032D0304A483A91422ED02E4A303A914253
:102A00002AD02C4A183A914226D0594524D0514513
:102A100022D0A94220D0B1421ED02A4A91421BD0D6
:102A2000284A1432914217D0264A2832914213D0B4
:102A3000244A3C3291420FD0224A503291420BD06C
:102A4000204A6432914207D01E4A7832914203D024
:102A50001C4A8C32914218D1016E0A6822F48072AD
:102A60000A6090F85C20816D02F01F020CFA02F2FD
:102A70004A60D0E919124A60C16E31B10A6822F485
:102A800080720A60D0E91C124A600022016D80F851
:102A900035C080F8342001B188470020DCE6000012
:102AA00028000240580002407000024088000240A6
:102AB000A00002407004024088040240A0040240CA
:102AC000B804024008540258406D70472DE9FC5F7D
:102AD0000446F74E0020DFF8D88300904FF41652DA
:102AE000F44808F11808A56DDFF8C493DFF8C0A317
:102AF000016809F1300920680AF1480AB1FBF2F1D6
:102B0000B04201912F68D5F800C0DFF8ACB335D0E2
:102B10004146884232D0484530D050452ED05845A5
:102B20002CD0E5491831884228D0E3493031884219
:102B300024D0E1494831884220D0E04988421DD064
:102B4000DE491831884219D0DC493031884215D02D
:102B5000DA494831884211D0DFF860E30EF1600EA7
:102B600070450BD0D54A7832904207D0D34B903382
:102B7000984203D0D149A83188427DD194F85C2095
:102B8000082102F01F0201FA02F23A424AD0B04292
:102B900032D0404530D048452ED050452CD05845F5
:102BA0002AD0C54A1832904226D0C34A30329042C9
:102BB00022D0C14A483290421ED0C04A90421BD017
:102BC000BE4A1832904217D0BC4A3032904213D0DD
:102BD000BA4A483290420FD0B84A603290420BD085
:102BE000B64A7832904207D0B44A9032904203D02D
:102BF000B24AA832904203D1026802F0040202E015
:102C0000026802F008026AB1026822F0040202605F
:102C100094F85C0000F01F008140A960606D40F0F6
:102C20000100606594F85C00012100F01F00814004
:102C3000394240D02068B04234D0404532D0484577
:102C400030D050452ED058452CD09B4A1832904257
:102C500028D0994A3032904224D0974A4832904244
:102C600020D0964A90421DD0944A1832904219D0F2
:102C7000924A3032904200E0AFE113D08F4A48329E
:102C800090420FD08D4A603290420BD08B4A7832FE
:102C9000904207D0894A9032904203D0874AA832A6
:102CA00090427DD1406910F0800F04D0A960606D22
:102CB00040F00200606594F85C00042100F01F0001
:102CC000814039423ED02068B04232D0404530D0B9
:102CD00048452ED050452CD058452AD0764A183237
:102CE000904226D0744A3032904222D0724A483202
:102CF00090421ED0714A90421BD0704A18329042C6
:102D000017D06E4A3032904213D06C4A483290420B
:102D10000FD06A4A603290420BD0684A78329042B3
:102D200007D0664A9032904203D0644AA83290425B
:102D30004ED1006810F0020F04D0A960606D40F021
:102D40000400606594F85C00102100F01F008140D1
:102D5000394258D02068B04234D0404532D048453E
:102D600030D050452ED058452CD0534A183290427E
:102D700028D0514A3032904224D04F4A48329042B3
:102D800020D04E4A90421DD04C4A1832904219D061
:102D90004A4A3032904215D0484A4832904200E0C8
:102DA00014E00FD0454A603290420BD0434A78324B
:102DB000904207D0414A9032904203D03F4AA83215
:102DC000904207D1006800F0080006E0006872E752
:102DD0000068B7E7006800F00400A0B1A9602068AF
:102DE0000168490304D50068000308D5A16C07E019
:102DF0000168C90503D4016821F008010160216C54
:102E000009B12046884794F85C00202100F01F009B
:102E10008140394279D02068B04232D0404530D02C
:102E200048452ED050452CD058452AD0224A183239
:102E3000904226D0204A3032904222D01E4A483258
:102E400090421ED01D4A90421BD01C4A183290421C
:102E500017D01A4A3032904213D0184A4832904262
:102E60000FD0164A603290420BD0144A783290420A
:102E700007D0124A9032904203D0104AA8329042B2
:102E800003D1006800F0100002E0006800F00200CA
:102E9000B0B3A96094F835000428206801680FD009
:102EA00049037ED5006800032BD4616C2AE0000042
:102EB000100002400C010024700002401004024087
:102EC00021F0160101602068416921F08001416113
:102ED000206C08B9A06C20B12068016821F00801BD
:102EE000016094F85C303F21012003F01F030022B1
:102EF0009940A96084F8350084F83420216D65E09C
:102F000003E0E16B09B120468847606D00287DD061
:102F1000606DC00759D02068042184F83510B04294
:102F20002BD0404529D0484527D0504525D058457D
:102F300023D09D49884220D09B49183188421CD01B
:102F400099493031884218D09849884215D097491C
:102F50001831884211D09549303188420DD09349BB
:102F60004831884209D091496031884205D08F4963
:102F70007831884201D08D499031016821F00101FA
:102F8000016020680099019A491C0091914202D881
:102F90000168C907F6D10068C00710D003200FE010
:102FA000FFE70168C905ACD403680121002223F0C2
:102FB0001003036084F8351084F83420A1E7012061
:102FC00084F83500002084F83400E16C00291DD01D
:102FD00002B02046BDE8F05F0847754988421DD021
:102FE00073491431884219D071492831884215D06B
:102FF0006F493C31884211D06D49503188420DD023
:103000006B496431884209D0694900E084E0783135
:10301000884203D066498C3188427DD194F85C8027
:103020000427016808F01F0807FA08F717EA0C0FD1
:10303000009746D04F0744D500980F04686003D529
:10304000C8033CD4A16CC1E7880638D42068B042DC
:103050002DD055496039884229D0484527D0504560
:1030600025D0584523D05049884220D04E491831A8
:1030700088421CD04C493031884218D04B49884294
:1030800015D04A491831884211D048493031884218
:103090000DD046494831884209D0704507D090424A
:1030A00005D0984203D04149A831884203D1016834
:1030B00021F0080102E0016821F004010160216CA7
:1030C00084E7022707FA08F717EA0C0F00974ED09B
:1030D0008F074CD500980F04686003D5C80344D40B
:1030E000616C73E7880640D42068B0422FD02E4927
:1030F000603988422BD0484529D0504527D05845C3
:1031000025D02949884222D02749183188421ED02B
:1031100025493031884200E044E018D023498842F4
:1031200015D022491831884211D0204930318842C7
:103130000DD01E494831884209D0704507D09042D1
:1031400005D0984203D01949A831884203D10168BB
:1031500021F0140102E0016821F00A01016001215F
:1031600084F83510002084F83400E16B2EE7082243
:1031700002FA08F212EA0C0F14D0090712D50168FE
:1031800021F00E01016094F85C100120002201F092
:103190001F0100FA01F16960606584F8350084F868
:1031A000342012E7BDE8FC9F880002401004024072
:1031B000085402582DE9F05F044600F063FC002C2F
:1031C00007467DD0E34E022120684FF00308DFF868
:1031D00088934FF00005DFF884A3B042DFF880B396
:1031E00034D0DC4A1832904230D048452ED0504579
:1031F0002CD058452AD0DA4A1832904226D0D84AE4
:103200003032904222D0D64A483290421ED0D54A1F
:1032100090421BD0D34A1832904217D0D14A303254
:10322000904213D0CF4A483290420FD0CD4A6032FC
:1032300090420BD0CB4A7832904207D0C94A9032A4
:10324000904203D0C74AA83290427DD184F835100D
:10325000B04284F834502ED0BE49183188422AD06A
:10326000484528D0504526D0584524D0BC4918316F
:10327000884220D0BA49303188421CD0B849483100
:10328000884218D0B749884215D0B64918318842CB
:1032900011D0B449303188420DD0B249483188420A
:1032A00009D0B0496031884205D0AE4978318842B2
:1032B00001D0AC499031016821F00101016008E0C2
:1032C00027E100BF00F0DEFBC01B052801D920214B
:1032D0001CE120680068C007F4D104F108002168EF
:1032E000D4E9053C8E4685C809681043D4E907280F
:1032F0001F43636A38439C4F40EA0C001043394037
:1033000040EA0800042B40EA010003D1D4E90B1283
:1033100011430843954909686FF30F01B1F1005F4C
:103320000FD36168A1F12902052A08D9163A032AA8
:1033300005D9083A012A02D94F39032901D840F4A6
:103340008010CEF8000000E023E02068676A406942
:10335000042F20F0070047EA00070DD1D4E90A0145
:10336000074349B12046FEF735FF28B1402060658C
:10337000012184F83510CCE0206847612046FEF733
:1033800047FE94F85C203F2102F01F0291408160CB
:1033900054E0774A90421BD0754B1433984217D0B3
:1033A000734B2833984213D0714B3C3398420FD063
:1033B0006F4B503398420BD06D4B6433984207D01B
:1033C0006B4B7833984203D0694B8C3398427DD154
:1033D00084F8351084F83450664B0168A26801EA1D
:1033E000030E402A73D0802A72D00022D4E90378D9
:1033F000D4E9053142EAD70242EAD8085C4AD4E966
:10340000077C48EAD30848EAD10141EAD701524291
:1034100041EA1C11142341EA0E01016020681044A6
:10342000B0FBF3F08000E0652046FEF7F1FD94F874
:103430005C20012102F01F02914041602068B042EF
:1034400057D044491831884253D0484551D050454F
:103450004FD058454DD042491831884249D0404953
:103460003031884245D03E494831884241D03D49BB
:1034700088423ED03B49183188423AD039493031F0
:10348000884236D037494831884232D03549603198
:1034900088422ED03349783188422AD03149903140
:1034A000884226D02F49A831884222D0304988420C
:1034B0001FD02F49143188421BD02D492831884212
:1034C00017D02B493C31884213D002E01DE017E0B1
:1034D00018E02749503188420BD025496431884291
:1034E00007D023497831884203D021498C31884262
:1034F00029D12046FEF7E6FDA06880280CD00CE01C
:10350000102273E74FF4804270E74021616584F830
:1035100035800120BDE8F09F6560216E207908604C
:10352000D4E9190141606068401E072808D8204688
:10353000FEF716FEE06E0560D4E91C01416002E072
:10354000E566256765670120656584F8350000201C
:10355000E0E7000010000240400002405800024036
:1035600070000240100402403F8010FE0010005C1A
:10357000085402580F00FEFF2DE9F84F04008C4656
:103580004FF00000009014D094F83400012812D0BD
:1035900094F835500120002184F83400012D0CD01E
:1035A000C00260650120009084F834100098BDE8E6
:1035B000F88F0120FBE70220F9E78C4D02262068F6
:1035C00084F83560A8428A4D61658A4E8A4FDFF8DB
:1035D0002C82DFF82C92DFF82CA2DFF82CB226D058
:1035E000A84224D0B04222D0B84220D040451ED0BC
:1035F00048451CD050451AD0584518D083498842B8
:1036000015D082491831884211D080493031884222
:103610000DD07E494831884209D07C4960318842CA
:1036200005D07A497831884201D0784990310168D3
:1036300021F00101016061462046FEF7F5FD6B496E
:10364000206888422CD0A8422AD0B04228D0B84264
:1036500026D0404524D0484522D0504520D058455A
:103660001ED06A4A90421BD0684A1832904217D046
:10367000664A3032904213D0644A483290420FD0AA
:10368000624A603290420BD0604A7832904207D052
:103690005E4A9032904203D05C4AA83290420CD1EC
:1036A000026822F01E0242F016020260206C88B10D
:1036B0002068026842F008020BE0026822F00E0265
:1036C00042F00A020260206C20B12068026842F0D9
:1036D00004020260206888424BD0A84249D0B04220
:1036E00047D0B84245D0404543D0484541D05045E9
:1036F0003FD058453DD0454A90423AD0434A1832CF
:10370000904236D0414A3032904232D03F4A48321D
:1037100090422ED03D4A603290422AD03B4A7832C5
:10372000904226D0394A9032904222D0374AA8326D
:1037300090421ED0364A90421BD0354A14329042F5
:1037400017D0334A2832904213D0314A3C3290424B
:103750000FD02F4A503290420BD02D4A6432904203
:1037600007D02B4A7832904203D0294A8C329042BB
:103770000DD1206E0268D20303D5026842F4807234
:103780000260E06E18B1026842F480720260206844
:10379000884226D0A84224D0B04222D0B84220D0BD
:1037A00040451ED048451CD050451AD0584518D029
:1037B0001649884215D015491831884211D013494D
:1037C000303188420DD011494831884209D00F4923
:1037D0006031884205D00D497831884201D00B49CB
:1037E0009031016841F001010160DFE61000024004
:1037F0002800024040000240580002407000024091
:1038000088000240A0000240B800024010040240BC
:103810000854025870B5044600F034F90546601C9F
:1038200002D004480078044400F02CF9401BA04268
:10383000FAD370BD000100242DE9F84F03247D4D1B
:1038400000234FF001094FF0B04B4FF00F0AE9E0B1
:1038500009FA03F73A4076D00E7906F00306012EF6
:1038600001D0022E18D1D0F808C04FEA430ECE681E
:1038700004FA0EF82CEA080C06FA0EF646EA0C06D4
:103880008660D0F804C00E792CEA070CC6F3001647
:103890009E4046EA0C0646600E79F643B6070BD00A
:1038A000C6684FEA43088F6804FA08FC26EA0C064B
:1038B00007FA08F73743C7600E7906F00306022EB1
:1038C00012D1DE080F694FEA437C00EB8606B6464C
:1038D000366A4FEADC6C0AFA0CF807FA0CF726EAAB
:1038E00008063743CEF820700F7906684FEA430880
:1038F00007F0030704FA08FC07FA08F726EA0C06A3
:10390000374307604E6816F4403F1CD04A4E376874
:1039100047F00207376036689F0706F002060096F8
:1039200023F0030606F1B046B6463F0FD6F808640A
:10393000DFF808810AFA07FC404526EA0C0603D1A5
:103940004FF0000C41E06CE0DFF8F4C0604502D1BC
:103950004FF0010C39E0DFF8ECC0604502D14FF0C8
:10396000020C32E0DFF8E0C0604502D14FF0030CFA
:103970002BE0DFF8D8C0604502D14FF0040C24E002
:10398000DFF8CCC0604502D14FF0050C1DE0DFF838
:10399000C4C0604502D14FF0060C16E0DFF8B8C095
:1039A000604502D14FF0070C0FE0DFF8B0C0604572
:1039B00002D14FF0080C08E0DFF8A4C0604502D146
:1039C0004FF0090C01E04FF00A0C0CFA07FC4CEA2E
:1039D000060CCEF808C44F68DBF80060FF0226EA48
:1039E000020600D516435F46CBF80060D1F804C04C
:1039F000DBF804605FEA8C2C26EA020600D5164349
:103A00007E606E684F6826EA0206BF0300D5164343
:103A10006E602E684F6826EA0206FF0300D5164343
:103A20002E605B1C0A6832FA03F67FF411AFBDE822
:103A3000F88F000080000058F4440258000002583B
:103A40000004025800080258000C025800100258E6
:103A50000014025800180258001C02580020025896
:103A6000002402580069084000D0012070470AB1C4
:103A7000816170470904FBE701480068000C70474A
:103A80000010005C014880687047000000010024BD
:103A90000248816802781144816070470001002467
:103AA000032010B500F0D4F801F0AEF80F4A104929
:103AB00014681368C4F3032203F00F038A5CC95C23
:103AC00002F01F0201F01F01D0400A4A20FA01F162
:103AD0001160094908600F2000F010F808B10120BA
:103AE00010BD00F079F8002010BD00001844025805
:103AF00026900008100100240C01002470B50D4D23
:103B000004462878A0B14FF47A71B1FBF0F00A496D
:103B10000968B1FBF0F001F0F1FD48B9102C07D2B3
:103B200000222146501E00F073F800206C6070BD2A
:103B3000012070BD000100240C010024154BF0B5DC
:103B4000083B427813491A600B680A1F23F00103EF
:103B50000B6043681360057BC67A827A437B2D072E
:103B6000847B45EA0665C77B90F809C0067A90F821
:103B700000E045EAC24040EA834040EA444040EA6F
:103B8000074040EA0C2040EA460040EA0E00086088
:103B9000F0BD0000A0ED00E0BFF35F8F04480021FE
:103BA0000368034A23F48033036070321160704766
:103BB00024ED00E0074A40F0010006497032106031
:103BC000086840F480300860BFF34F8FBFF36F8FF9
:103BD0007047000024ED00E0054808B5016841F099
:103BE00002010160006800F00200009008BD0000C2
:103BF000F4440258002809DB410900F01F02890043
:103C0000012001F1E0219040C1F80001704700005F
:103C10000E4BF0B41B680D46C3F30223C3F1070635
:103C2000042E00D90426191D072901D2002300E023
:103C3000DB1E012404FA06F19C40491E2940641E43
:103C4000994014402143F0BC05F046B80CED00E06B
:103C5000064900F0070210B54FF6FF040868044B50
:103C6000204040EA02201843086010BD0CED00E03F
:103C70000000FA05134970B50A68D243520705D50A
:103C8000096801F00701814213D118E00A6822F0A7
:103C9000070202430A60FFF7F5FE0A4D4FF47A76F9
:103CA0000446083D07E000BFFFF7ECFE001BB042F2
:103CB00001D9012070BD2868C0438004F4D40020DD
:103CC00070BD00000C48025810B500F057FF0549C0
:103CD0000968054AC1F30211515C01F01F01C84097
:103CE00010BD00002044025826900008494930B514
:103CF000484C0B1D0A68143409681D68246802F0DA
:103D00000303C5F30012C1F30531C4F3CC04002949
:103D100014FB02F200EE102AF8EE400A75D03F4A7A
:103D20009FED3D1AB7EE000A6BB1DFED3D1A012B96
:103D300001D0022B64D002EE101A1168F8EE422A6C
:103D400081EEA22A21E0334C283C23689B0612D541
:103D5000344B246801EE901A1168C4F3C104F8EEE4
:103D6000612AE34001EE903AC1F30801F8EE611ACE
:103D700081EEA22A0BE001EE901ADFED2B2A00BFA4
:103D8000F8EE611A116882EEA12AC1F3080101EE72
:103D9000901A1168F8EE611A40EE811A71EE800AED
:103DA00062EE200AC1F3462101EE101AB8EE411A64
:103DB00031EE001AC0EE811ABCEEE11A80ED001A55
:103DC0001168C1F3064101EE101AB8EE411A31EE46
:103DD000001AC0EE811ABCEEE11A80ED011A1168DA
:103DE000C1F3066101EE101AB8EE411A31EE000A75
:103DF00080EE801ABCEEC10A80ED020A30BD04E0FC
:103E000001EE901ADFED092ABAE700210160416056
:103E10008160F3E728440258000000393844025812
:103E20000024744A0090D0030024744C20BCBE4B84
:103E3000494930B5484C0B1D0A681C3409681D6897
:103E4000246802F00303C5F30022C1F30551C4F353
:103E5000CC04002914FB02F200EE102AF8EE400A0E
:103E600075D03F4A9FED3D1AB7EE000A6BB1DFED0A
:103E70003D1A012B01D0022B64D002EE101A1168FA
:103E8000F8EE422A81EEA22A21E0334C283C236836
:103E90009B0612D5344B246801EE901A1168C4F3C6
:103EA000C104F8EE612AE34001EE903AC1F3080143
:103EB000F8EE611A81EEA22A0BE001EE901ADFED16
:103EC0002B2A00BFF8EE611A116882EEA12AC1F315
:103ED000080101EE901A1168F8EE611A40EE811A9D
:103EE00071EE800A62EE200AC1F3462101EE101A3B
:103EF000B8EE411A31EE001AC0EE811ABCEEE11A9A
:103F000080ED001A1168C1F3064101EE101AB8EEF7
:103F1000411A31EE001AC0EE811ABCEEE11A80EDB2
:103F2000011A1168C1F3066101EE101AB8EE411AC8
:103F300031EE000A80EE801ABCEEC10A80ED020A62
:103F400030BD04E001EE901ADFED092ABAE7002146
:103F5000016041608160F3E72844025800000039A5
:103F6000404402580024744A0090D0030024744C4A
:103F700020BCBE4B2DE9FE4F0546DFF8E48350F828
:103F8000081B0024F64FC943019005F1280026467E
:103F900008F12408009008011DD4A86E50B1B0F5B6
:103FA000801F0CD0B0F5001F0ED0B0F5401F1ED002
:103FB00001240FE0386840F40030386017E00198C1
:103FC000022103F0E1FA03E00098022103F06CFB08
:103FD00004000CD026462888C043C00523D4A86D11
:103FE00005281ED2DFE800F00C11161B1B00AA6E7C
:103FF000D8F8001021F440111143C8F80010EAE786
:10400000386840F40030386009E00198002103F07E
:10401000BBFA03E00098002103F046FB044674B1AC
:1040200000E0012426462888C043800528D4E86D96
:1040300080281ED00CDC90B140280ED114E0AA6D6F
:10404000D8F8001021F007011143C8F80010EAE782
:10405000C02813D0B0F5807F10D001240FE038685D
:1040600040F40030386009E00198002103F08CFA38
:1040700003E00098002103F017FB04469CB126469C
:104080002888DFF8DC92C04309F12C0940052CD4C4
:10409000D5F8A800B0F5800F20D00DDCA0B1B0F5A8
:1040A000001F0FD115E0EA6DD8F8001021F4E0717F
:1040B0001143C8F80010E3E7B0F5C00F13D0B0F516
:1040C000000F10D001240FE0386840F40030386051
:1040D00009E00198002103F057FA03E0009800215D
:1040E00003F0E2FA04467CB126462888C043000566
:1040F0002DD4D5F8AC00B0F1007F21D00EDCA8B1F2
:10410000B0F1807F10D116E0D5F8A820D9F80010C2
:1041100021F460011143C9F80010E6E7B0F1407FD7
:1041200013D0B0F1806F10D001240FE0386840F454
:104130000030386009E00198002103F025FA03E01F
:104140000098002103F0B0FA044674B126462868AE
:10415000C04380011FD4E86CD8B110280FD02028AC
:1041600012D0302815D0012414E0D5F8AC20D9F8AD
:10417000001021F0E0611143C9F80010E7E738684A
:1041800040F40030386004E00198022103F0FCF9AB
:10419000044674B126462888C043C0042BD4286E38
:1041A000B0F5005F20D00DDCA0B1B0F5805F0FD17D
:1041B00015E06B48EA6C2030016821F030011143B2
:1041C0000160E8E7B0F5405F13D0B0F5804F10D044
:1041D00001240FE0386840F40030386009E00198AD
:1041E000002103F0D1F903E00098002103F05CFA0C
:1041F00004468CB126462888C043800429D4686EC2
:10420000B0F5403F23D010DC08B3B0F5803F14D0A8
:10421000B0F5003F0FD115E02A6ED8F8001021F458
:10422000E0411143C8F80010E5E7B0F5802F0ED04B
:10423000B0F5A02F0BD001240AE00198012103F072
:10424000A3F903E00098012103F02EFA044694B18B
:1042500026462888C04340042AD4D5F8B000B0F1DF
:10426000405F23D010DC08B3B0F1805F14D0B0F110
:10427000005F0FD115E06A6ED8F8001021F4E0213C
:104280001143C8F80010E4E7B0F1804F0ED0B0F150
:10429000A04F0BD001240AE00198012103F074F92A
:1042A00003E00098012103F0FFF9044674B12646AB
:1042B0002888C04300041FD4286FD8B1B0F1805FB4
:1042C0000ED0B0F1005F10D0012414E0D5F8B0207A
:1042D000D9F8001021F0E0411143C9F80010E7E7D8
:1042E000386840F40030386004E00198012103F0A0
:1042F0004BF9044674B126462868C043C0011ED459
:10430000A86CD0B101280ED0022811D0032814D0F7
:10431000012413E02A6FD8F8001021F04051114316
:10432000C8F80010E8E7386840F40030386004E06E
:104330000198022103F028F90446ACB1264628680A
:10434000DFF81CB0C043ABF11C0B400252D405484F
:10435000016841F480710160FFF794FB824611E02F
:104360002C44025800480258FA48AA6C016821F00F
:10437000030111430160E2E7FFF784FBA0EB0A00B1
:10438000642835D8F4480068C005F5D58CBBDFF843
:10439000C4A3B5F8B4100AF1240ADAF8000001F455
:1043A000407100F44070884211D0DAF80010DAF859
:1043B000002021F4407142F48032CAF80020DAF87B
:1043C000002022F48032CAF80020CAF80010D5F884
:1043D000B400B0F5807F1AD1FFF754FB029012E0D1
:1043E000FFF750FB0299411A41F2883081420AD905
:1043F000032426462878DFF85CA3C0430AF1080AA4
:10440000C00721D03CE0DAF800008007E8D5D5F8F5
:10441000B410C1F30120032858460DD0016821F4DF
:104420007C510160B5F8B420DAF80010C2F30B0239
:104430001143CAF80010DDE7C84A036802EA111206
:1044400023F47C511143ECE7E86F182816D005DC03
:10445000A0B1082808D0102804D10AE020280DD0E7
:1044600028280BD001240AE00198012103F08CF8E0
:1044700003E00098012103F017F9044664B12646D1
:104480002878C04380071ED4A86F062819D2DFE819
:1044900000F0160C11161616EA6FDAF8001021F06B
:1044A00038011143CAF80010EAE70198012103F02E
:1044B0006BF803E00098012103F0F6F804467CB1A4
:1044C00000E0012426462878C04340071FD4D5F8D1
:1044D0009400062819D2DFE800F0160C1116161603
:1044E000AA6FDAF8001021F007011143CAF8001092
:1044F000E9E70198012103F047F803E00098012162
:1045000003F0D2F80446A4B100E00124264628783E
:10451000C04380062BD4D5F89000B0F1405F24D082
:1045200011DC10B3B0F1805F15D0B0F1005F10D195
:1045300016E0D5F89420D9F8001021F007011143B6
:10454000C9F80010E3E7B0F1804F0ED0B0F1A04FF2
:104550000BD001240AE00198002103F015F803E0D4
:104560000098022103F0A0F8044694B1264628786A
:10457000C04340062BD4D5F89C00B0F5406F24D042
:1045800011DC10B3B0F5806F15D0B0F5006F10D10D
:1045900016E0D5F89020DAF8001021F0E041114340
:1045A000CAF80010E3E7B0F5805F0ED0B0F5A05F69
:1045B0000BD001240AE00198002102F0E5FF03E09E
:1045C0000098022103F070F8044694B1264628783A
:1045D000C04300062BD4D5F8A000B0F5C04F24D0BE
:1045E00011DC10B3B0F5005F15D0B0F5804F10D1DD
:1045F00016E0D5F89C20D9F8001021F4E0511143C1
:10460000C9F80010E3E7B0F5004F0ED0B0F5204F29
:104610000BD001240AE00198002102F0B5FF03E06D
:104620000098022103F040F8044654B12646287849
:10463000C04300071ED4D5F88400B0F5805F0AD0CF
:104640000FE0D5F8A020D9F8001021F46041114303
:10465000C9F80010EBE70098022103F025F800B13B
:104660000126D5F88420DAF8001021F440511143D6
:10467000CAF800102878C043C00613D4D5F89800B3
:10468000B0F5807F05D10098022103F00DF800B14C
:104690000126D5F89820D9F8001021F44071114373
:1046A000C9F800102868C043000316D4D5F8A40048
:1046B00038B1B0F5803F09D0B0F5003F0BD00124F0
:1046C0000AE00198002102F05FFF03E00098022158
:1046D00002F0EAFF04468CB126462868C043400336
:1046E00022D4D5F88800B0F5801F11D0B0F5001F96
:1046F00013D0B0F5401F15D0012414E0D5F8A42044
:10470000D9F8001021F440311143C9F80010E4E752
:10471000386840F40030386004E00098012102F06D
:10472000C3FF04465CB126462868C043C00323D4B7
:10473000286DA8B1B0F5803F17D001241BE0D5F853
:104740008820DAF8001021F440111143CAF8001053
:10475000EAE700004C44025800480258CFFFFF002F
:10476000386840F40030386004E00198022102F01B
:104770000BFF0446E4B126462868C043800005D4F8
:104780000098022102F090FF00B101262868C04382
:1047900080031BD4D5F88000B0B1B0F5807F0FD076
:1047A000B0F5007F10D0B0F5407F0DD001240CE0B3
:1047B0005A482A6D016821F4803111430160DBE71A
:1047C000386840F400303860ECB326462868C043AF
:1047D000C00207D46A6FD8F8001021F000411143DD
:1047E000C8F800102868C043C00008D4D5F8B82025
:1047F000DBF8001021F480411143CBF80010286849
:10480000C043800207D4EA6ED8F8001021F080710E
:104810001143C8F800102868C04340000CD4DBF8EE
:10482000001021F40041CBF80010DBF80010D5F89F
:10483000BC201143CBF800102868C04308D4374887
:104840006A6D016800E018E021F0405111430160F9
:104850002868C043000208D4D5F88C20DAF800108C
:1048600021F440011143CAF8001028790024C04304
:1048700000F0010020430AD00FE0D5F88020DAF8DC
:10488000001021F440711143CAF800109EE701980E
:10489000002102F079FE00B106462879C04300F0FD
:1048A0000200204305D10198012102F06DFE00B104
:1048B00006462879C04300F00400204305D1019842
:1048C000022102F061FE00B106462879C04300F0E3
:1048D0000800204305D10098002102F0E5FE00B158
:1048E00006462879C04300F01000204305D1009807
:1048F000012102F0D9FE00B106462879C04300F03C
:104900002000044304D10098022102F0CDFE00B93A
:1049100016B10120BDE8FE8F0020FBE74C44025891
:104920002DE9F05F04000F467ED0DFF83882D8F81A
:10493000000000F00F00B8420CD2D8F8001021F0AF
:104940000F013943C8F80010D8F8000000F00F003C
:10495000B84269D12078844D40070AD5206929687A
:1049600001F07001884204D9296821F070010143E7
:10497000296020787C4E361D00070AD560693168B1
:1049800001F07001884204D9316821F070010143BF
:1049900031602078C0060AD5A069316801F4E06171
:1049A000884204D9316821F4E06101433160207804
:1049B000DFF8B4B180060BF1080B0CD5E16958465D
:1049C000DBF8002002F07002914204D9026822F064
:1049D00070020A430260207880070AD5E0682968DF
:1049E00001F00F01884204D9296821F00F01014329
:1049F00029602078C0073ED05B49A2682868183932
:104A000020F47060104328606068022818D00328E2
:104A100019D00968012819D0490700294ADADFF8B6
:104A200048A1AAF1080A00E044E0DAF8002022F0E8
:104A300007020243CAF80020FFF724F8814612E07B
:104A400009688903E9E709688901E6E7C905E4E738
:104A5000FFF718F8A0EB090141F28830814202D932
:104A60000320BDE8F09F6168DAF8000000F038002C
:104A7000B0EBC10FECD1207880070AD5E068296837
:104A800001F00F01884204D2296821F00F0101438F
:104A90002960D8F80010404601F00F01B9420BD947
:104AA000016821F00F0139430160006800F00F0038
:104AB000B84201D00120D4E7207840070AD5206908
:104AC000296801F07001884204D2296821F0700140
:104AD00001432960207800070AD56069316801F038
:104AE0007001884204D2316821F0700101433160C5
:104AF0002078C0060AD5A069316801F4E0618842D7
:104B000004D2316821F4E0610143316020788006ED
:104B10000CD5E1695846DBF8002002F070029142A2
:104B200004D2026822F070020A43026000F06CF8BE
:104B30000E492A682B68C2F3032203F00F038A5C34
:104B4000C95C02F01F0201F01F01D040084A20FAA0
:104B500001F111600749086007480068BDE8F05F8F
:104B6000FEF7CCBF002000521844025826900008DF
:104B7000100100240C0100240401002430B500F0D1
:104B800043F80B4A0B490C4B15681468C5F3032214
:104B900004F00F048A5C095D02F01F0201F01F019E
:104BA000D040064A20FA01F119601060084630BD75
:104BB0001844025826900008100100240C0100241B
:104BC00000B5FFF7DBFF05490968054AC1F302118B
:104BD000515C01F01F01C84000BD00001C44025898
:104BE0002690000800B5FFF7C9FF05490968054A86
:104BF000C1F30221515C01F01F01C84000BD00005B
:104C00001C44025826900008454970B5454809687B
:104C1000434B103B11F0380208D00111082A03D091
:104C2000102A0BD0182A0BD0084670BD19688906C7
:104C3000FBD51968C1F3C101C84070BD3A4870BDC9
:104C40003749374D18310C1D24350A680968266824
:104C50002D6802F0030406F00102C1F30511C5F34B
:104C6000CC0515FB02F200EE102AB8EE400AE9B3BB
:104C70002F4ADFED2E0AB7EE001A6CB1DFED2D1AC8
:104C8000012C01D0022C43D002EE101A1068F8EE6D
:104C9000422A81EEA22A1EE01C68A40611D51B68D8
:104CA00001EE901A1168C3F3C103F8EE612AD840EF
:104CB00001EE900AC1F30800F8EE611A81EEA22A13
:104CC0000BE001EE901ADFED1C2A00BFF8EE611A2E
:104CD000106882EEA12AC0F3080001EE900AF8EEF7
:104CE000611A40EE201A31EE810A00E015E022EE52
:104CF000000A1068C0F34620401C00EE900AF8EE4F
:104D0000600A80EE201ABCEEC10A10EE100A70BDD7
:104D100001EE901ADFED092AD8E7002070BD0000EF
:104D2000104402580090D00340787D010000003903
:104D3000304402580024744A0024744C20BCBE4BFA
:104D40002DE9F05F04007DD0FF4F2078FE4D18372D
:104D5000DFF8F493103DC00748D0D9F80000396857
:104D600000F03800102815D0182803D101F00300F6
:104D700002280FD06068B0F5803F12D010B1B0F5B6
:104D8000A02F18D0286820F480302860286820F4EC
:104D9000802009E02868800328D560680028D2D0E8
:104DA00024E0286840F480302860606888B1FEF70D
:104DB00069FE064609E0286840F480202860F0E794
:104DC000FEF760FE801B64286FD828688003F7D543
:104DD0000CE0FEF757FE064605E000BFFEF752FE68
:104DE000801B6428F0D828688003F7D4207841F22B
:104DF0000308D54E0C3E800769D5D9F80000396804
:104E000010F038000ED0182801D188070AD0E068C9
:104E100090B3296821F0190101432960FEF732FEA1
:104E2000824631E02868400702D5E06800288AD031
:104E3000E168286820F0190008432860FEF722FE88
:104E4000824607E0DFE000BFFEF71CFEA0EB0A0091
:104E50000228B9D828684007F6D500BFFEF70CFE37
:104E600040451BD82069402812D0316821F47C319C
:104E700041EA003030602AE018E000BFFEF702FE91
:104E8000A0EB0A0002289FD828684007F6D5E5E77E
:104E9000306820F47C3040F40030EBE7207C31684F
:104EA00021F0FE4141EA0060E4E70DE1286820F0CE
:104EB00001002860FEF7E6FD824605E0FEF7E2FD10
:104EC000A0EB0A0002288DD828684007F6D4207885
:104ED000C0065DD5D9F80000DFF86CB2396800F083
:104EE0003800ABF1040B082810D0182803D101F0CA
:104EF000030001280AD0E0690028286838D040F073
:104F000080002860FEF7BEFD824623E02868C005C9
:104F100023D5E069802876D11FE0206A202821D09F
:104F2000316821F0F84141EA8060306030E000BF34
:104F300094F82010DBF8002022F07C5242EA016154
:104F4000CBF8001024E000BFFEF79CFDA0EB0A00A8
:104F5000022898D82868C005F6D5FEF78DFD404593
:104F6000E6D8DAE7306820F0F84040F08040DCE72F
:104F700020F080002860FEF785FD064605E000BFB2
:104F8000FEF780FD801B02289DD82868C005F7D455
:104F90002078000729D56C48616964300029804673
:104FA000016811D041F001010160FEF76BFD06467A
:104FB00005E000BFFEF766FD801B0228C9D8D8F8BF
:104FC00000008007F6D510E021F001010160FEF736
:104FD00059FD064605E000BFFEF754FD801B022880
:104FE00072D8D8F800008007F6D42078800623D540
:104FF000A0690028286810D040F480502860FEF78F
:1050000041FD064605E036E1FEF73CFD801B022827
:105010005AD828688004F7D50EE020F48050286024
:10502000FEF730FD064604E0FEF72CFD801B02284B
:105030004AD828688004F7D4207840074FD5DFF895
:105040000C81D8F8001041F48071C8F80010FEF708
:1050500019FD064605E000BFFEF714FD801B64281D
:1050600032D8D8F80000C005F6D5374EA0686036B3
:1050700001280AD008B1052813D0306820F00100BB
:105080003060306820F0040002E0306840F0010039
:105090003060A06841F2883A90B1FEF7F3FC804698
:1050A0000AE0306840F004003060EEE7FEF7EAFC0A
:1050B000A0EB0801514507D830688007F6D50EE00F
:1050C000FEF7E0FC804607E084E000BFFEF7DAFC74
:1050D000A0EB080151457DD830688007F6D4606A9E
:1050E000B0B3DFF86480D9F8001008F120084FF65B
:1050F000F87B08F10409C1F3C2010329A8F1040AED
:1051000069D00228286820F08070286003D0FEF75C
:10511000B9FC044684E0FEF7B5FC064605E000BF96
:10512000FEF7B0FC801B022877D828688001F7D4EE
:10513000E26A40F2F331386854F8283F884340EA85
:1051400002101843386004E0104402580048025826
:10515000B5E0217B434622894FF4FE0C208A4FF0B4
:10516000FE474902267D521E401EA1F50071C2F382
:1051700008088AB2761E0CEA004042EA080202439E
:10518000504607EA06610A431A60DAF8002022F066
:105190000102CAF80020D9F80020266A22EA0B0290
:1051A00042EAC602C9F80020DAF80010A26921F02C
:1051B0000C011143CAF800100168E26921F00201F4
:1051C00011430160016841F480310160016841F4DC
:1051D000003101E021E027E00160016841F4802115
:1051E0000160016841F001010160286840F08070B1
:1051F0002860FEF747FC044605E000BFFEF742FCCE
:10520000001B022809D828688001F7D557E000BFA5
:10521000FEF738FC001B022802D90320BDE8F09FEE
:1052200028688001F4D44AE039680128D8F80000E1
:1052300021D0A26A01F0030393421CD1E26AC1F3B8
:1052400005118A4217D1216BC0F30802491E8A4218
:1052500011D1616BC0F34622491E91420BD1A16B63
:10526000C0F30642491E914205D1E16BC0F30660CE
:10527000491E814201D00120D0E7A16C4E46D9F8E9
:105280000000C0F3CC00814219D0DAF80000554686
:1052900020F00100CAF80000FEF7F4FB4FEA000717
:1052A000FEF7F0FBB842FBD0A26C306820EA0B009E
:1052B00040EAC2003060286840F001002860002009
:1052C000ACE700002DE9F047040029D0594A4FF01F
:1052D00000092068584B594D9042C4F8289006D0D8
:1052E000984204D0A84202D0E1680F2918D8E1689A
:1052F0004FF0010AE76B0831C9080AEB57167143F2
:10530000904205D0984203D0A84201D0082907D87E
:10531000904203D0984201D0A84204D1102902D96A
:105320000120BDE8F08794F8810020B9204684F878
:10533000809000F085F8022084F8810020680168E0
:1053400021F0010101602068A1698268B1F1806FDC
:1053500002F4F81110D16268B2F5800F01D01AB1D1
:105360000AE0A26B22B107E0A26BB2F1805F03D129
:10537000026842F4805202606068400209D5E06829
:10538000072806D32068236D026822F480721A432E
:1053900003E02068026822F480720260A66AE06975
:1053A000E26B25683043E3680A4310431843A86062
:1053B000D4E90D02D4E90581636A25691843D4F85C
:1053C00020C00A43266810432843A56DD4E9017222
:1053D000D4E9123140EA080040EA0C00384308439F
:1053E000104318432843F060606868B920688168FA
:1053F00021F4C05141F4006181602068816821F48A
:10540000C06141F4806181602068016D21F001017B
:1054100001656068400206D52068626DC16821F0B0
:1054200000411143C160C4F8849084F881A0002039
:1054300077E700000030014000380040003C0040A9
:1054400010B5B6B00446142130A8FBF746FAC021C7
:105450006846FBF742FA1849206888422AD181142D
:10546000002018900446CDE900106846FEF782FD42
:1054700008B1FDF719F81148016841F48051016045
:10548000006800F4805035900C481038016841F0F5
:1054900001010160006830AB022100F0010035908D
:1054A000E020052283E81300054830A9CDE9334206
:1054B000FEF7C2F936B010BD00300140F04402588A
:1054C000000002582DE9F84F994617468A460446CF
:1054D000FEF7D8FA064694F88100012839D1BAF1CE
:1054E000000F7CD0002FFCD094F88000012830D031
:1054F000A26800254FF0010884F88080032184F819
:105500008110C4F88450C4F85CA06566A4F86850A3
:10551000656725672C34B2F5C02FA786E786E58737
:1055200054F82C0D18D0C16821F4C02141F4003189
:10553000C160206841686FF30F0139434160206802
:10554000016841F0010101606068B0F5800F08D08A
:105550000CE00220BDE8F88F016841F400610160B1
:10556000E7E72068016841F400710160E0680F28F6
:105570001CD820E02068416989070BD5E16D0968D6
:105580000162E06D001DE065B4F86200401EA4F801
:1055900062000BE0FEF776FA811B494503D3B9F1AF
:1055A000FF3F03D09BE0B9F1000F31D0B4F86200A7
:1055B0000028DFD177E007282ED870E02068416905
:1055C00089071DD5B4F8621001290DD9E16B59B1D5
:1055D000E16D09680162E06D001DE06500E07CE0BE
:1055E000B4F86200801E08E0E16D09880184E06D76
:1055F000801CE065B4F86200401EA4F862000BE075
:10560000FEF740FA811B494503D3B9F1FF3F03D0B0
:1056100065E0B9F1000F62D0B4F862000028CDD186
:1056200041E02068416989072DD5B4F8621003294B
:105630000CD9E16B402909D9E16D09680162E06D7F
:10564000001DE065B4F86200001F19E0B4F86210B4
:1056500001290BD9E16B49B1E16D09880184E06D45
:10566000801CE065B4F86200801E09E0E16D0978F5
:1056700080F82010E06D401CE065B4F86200401E28
:10568000A4F862000BE0FEF7FDF9811B494503D346
:10569000B9F1FF3F03D022E0B9F1000F1FD0B4F8F9
:1056A00062000028BDD100224B460821204600960A
:1056B00002F0E8F828B1D4F8840040F02000C4F8E3
:1056C0008400204602F080F884F88180D4F88400B9
:1056D00084F8805000283FF43DAF01203AE720468F
:1056E00002F072F8D4F8841084F8805041F480718C
:1056F000C4F8841084F8818003202BE7401EB0F1A9
:10570000807F10B501D3012010BD4FF0E02460610F
:105710000F21601703F0E0FA0020A061072121614A
:1057200010BD704770477047F0B590F83C20012AD3
:105730003BD01F4E012480F83C40022280F83D20DF
:1057400002681C4D5368B242D2F808C001D0AA4288
:1057500003D14F6823F470033B430F6823F07003B9
:105760001F4357600268B24213D0B2F1804F10D08D
:10577000114B9A420DD0114B9A420AD0104B9A42CB
:1057800007D0AA4205D00F4B9A4202D00E4B9A4244
:1057900004D189682CF0800319439160002180F8BE
:1057A0003D4080F83C100846F0BD0220F0BD0000EE
:1057B00000000140000401400004004000080040D7
:1057C000000C0040001800400040014010B50400EB
:1057D00003D094F83D0010B107E0012010BD002077
:1057E00084F83C00204600F023F8022084F83D00B5
:1057F0002068211D02F0F2F9012084F8480084F8A5
:105800003E0084F83F0084F8400084F8410084F8AA
:10581000420084F8430084F8440084F8450084F88A
:10582000460084F8470084F83D00002010BD0000C9
:1058300008B5154A0168154891420ED1016841F03A
:105840001001016000680022114600F01000009075
:105850003620FEF7DDF9362010E00D4A914211D1D5
:10586000016841F02001016000680022012100F080
:10587000200000903720FEF7CBF93720BDE8084024
:10588000FEF7B8B908BD000000100040E844025817
:105890000014004090F83D10012901D0012070470C
:1058A000174A022180F83D100168CB6843F00103DC
:1058B000CB600068904214D0B0F1804F11D01149F4
:1058C00088420ED0104988420BD01049884208D037
:1058D0000F49884205D00F49884202D00E498842BC
:1058E00007D181680D4A1140062906D0B1F5803FE5
:1058F00003D0016841F00101016000207047000001
:10590000000001400004004000080040000C00407E
:105910000004014000180040004001400700010061
:105920002DE9F04104000D4603D094F83D0018B174
:1059300008E00120BDE8F081002084F83C0020460A
:1059400000F04CF8244A022084F83D002068816869
:10595000114081602068211D02F040F9226840F268
:105960000336AF6940F60C4C2B684FF2F00EA86876
:1059700091680B439169B14341EA07210843D5E996
:10598000031720EA0C00D5E9076C20EA0E00D2F8D4
:1059900020E03F0140EA062668686D69314347EA26
:1059A0000C37936023680F4301219F612EF0AA02F8
:1059B00042EA051322681843106284F8481084F8FC
:1059C0003E1084F83F1084F8441084F8451084F8A1
:1059D0003D100020AEE70000F8BFFEFF30B587B0F5
:1059E000044614216846FAF778FF246800213E4AED
:1059F0003E4894424FF002021CD13C4B10331C68CD
:105A000044F001041C601B6803F001030593036864
:105A100043F0100303600068012300F010000590BC
:105A20004FF420600090CDE90121CDE90313304807
:105A300069461CE02D4B2F4D0833AC421BD11C682E
:105A400044F002041C601B6803F002030593036822
:105A500043F004030360006800F004000590C020D8
:105A60000090CDE90121CDE9031223486946FDF7F5
:105A7000E3FE07B030BD214DAC4219D11C6844F0A3
:105A800004041C601B6803F004030593036843F0DF
:105A900008030360006800F0080005904FF44050D0
:105AA0000090CDE90121CDE9031215486946DEE7F2
:105AB000144DAC42DDD11C6844F008041C601B6826
:105AC00003F008030593036843F0010303600068D3
:105AD00000F00100059003200090CDE90121CDE9FF
